{
  "contractName": "VerifiableCredentialIssuer",
  "abi": [
    {
      "anonymous": false,
      "inputs": [
        {
          "indexed": true,
          "internalType": "address",
          "name": "holder",
          "type": "address"
        },
        {
          "indexed": false,
          "internalType": "string",
          "name": "credential",
          "type": "string"
        },
        {
          "indexed": false,
          "internalType": "bytes32",
          "name": "signature",
          "type": "bytes32"
        }
      ],
      "name": "CredentialIssued",
      "type": "event"
    },
    {
      "inputs": [
        {
          "internalType": "address",
          "name": "",
          "type": "address"
        }
      ],
      "name": "credentials",
      "outputs": [
        {
          "internalType": "address",
          "name": "holder",
          "type": "address"
        },
        {
          "internalType": "string",
          "name": "credential",
          "type": "string"
        },
        {
          "internalType": "bytes32",
          "name": "signature",
          "type": "bytes32"
        }
      ],
      "stateMutability": "view",
      "type": "function",
      "constant": true
    },
    {
      "inputs": [
        {
          "internalType": "address",
          "name": "holder",
          "type": "address"
        },
        {
          "internalType": "string",
          "name": "credential",
          "type": "string"
        },
        {
          "internalType": "bytes32",
          "name": "signature",
          "type": "bytes32"
        }
      ],
      "name": "issueCredential",
      "outputs": [],
      "stateMutability": "nonpayable",
      "type": "function"
    },
    {
      "inputs": [
        {
          "internalType": "address",
          "name": "holder",
          "type": "address"
        }
      ],
      "name": "getIssuedCredential",
      "outputs": [
        {
          "internalType": "string",
          "name": "",
          "type": "string"
        },
        {
          "internalType": "bytes32",
          "name": "",
          "type": "bytes32"
        }
      ],
      "stateMutability": "view",
      "type": "function",
      "constant": true
    }
  ],
  "bytecode": "0x608060405234801561001057600080fd5b50610bd6806100206000396000f3fe608060405234801561001057600080fd5b50600436106100415760003560e01c80636016dd4a14610046578063ed0f526514610078578063f10705e6146100a9575b600080fd5b610060600480360381019061005b9190610529565b6100c5565b60405161006f9392919061060e565b60405180910390f35b610092600480360381019061008d9190610529565b610197565b6040516100a092919061064c565b60405180910390f35b6100c360048036038101906100be91906107dd565b6102b3565b005b60006020528060005260406000206000915090508060000160009054906101000a900473ffffffffffffffffffffffffffffffffffffffff169080600101805461010e9061087b565b80601f016020809104026020016040519081016040528092919081815260200182805461013a9061087b565b80156101875780601f1061015c57610100808354040283529160200191610187565b820191906000526020600020905b81548152906001019060200180831161016a57829003601f168201915b5050505050908060020154905083565b606060008060008473ffffffffffffffffffffffffffffffffffffffff1673ffffffffffffffffffffffffffffffffffffffff1681526020019081526020016000206001016000808573ffffffffffffffffffffffffffffffffffffffff1673ffffffffffffffffffffffffffffffffffffffff1681526020019081526020016000206002015481805461022a9061087b565b80601f01602080910402602001604051908101604052809291908181526020018280546102569061087b565b80156102a35780601f10610278576101008083540402835291602001916102a3565b820191906000526020600020905b81548152906001019060200180831161028657829003601f168201915b5050505050915091509150915091565b600073ffffffffffffffffffffffffffffffffffffffff166000808573ffffffffffffffffffffffffffffffffffffffff1673ffffffffffffffffffffffffffffffffffffffff16815260200190815260200160002060000160009054906101000a900473ffffffffffffffffffffffffffffffffffffffff1673ffffffffffffffffffffffffffffffffffffffff1614610383576040517f08c379a000000000000000000000000000000000000000000000000000000000815260040161037a906108f8565b60405180910390fd5b600060405180606001604052808573ffffffffffffffffffffffffffffffffffffffff168152602001848152602001838152509050806000808673ffffffffffffffffffffffffffffffffffffffff1673ffffffffffffffffffffffffffffffffffffffff16815260200190815260200160002060008201518160000160006101000a81548173ffffffffffffffffffffffffffffffffffffffff021916908373ffffffffffffffffffffffffffffffffffffffff16021790555060208201518160010190816104539190610ace565b50604082015181600201559050508373ffffffffffffffffffffffffffffffffffffffff167fbdf9ef4f9035b13546d3692b1870009e9249524220f688fe28d98c7612cf2cf484846040516104a992919061064c565b60405180910390a250505050565b6000604051905090565b600080fd5b600080fd5b600073ffffffffffffffffffffffffffffffffffffffff82169050919050565b60006104f6826104cb565b9050919050565b610506816104eb565b811461051157600080fd5b50565b600081359050610523816104fd565b92915050565b60006020828403121561053f5761053e6104c1565b5b600061054d84828501610514565b91505092915050565b61055f816104eb565b82525050565b600081519050919050565b600082825260208201905092915050565b60005b8381101561059f578082015181840152602081019050610584565b60008484015250505050565b6000601f19601f8301169050919050565b60006105c782610565565b6105d18185610570565b93506105e1818560208601610581565b6105ea816105ab565b840191505092915050565b6000819050919050565b610608816105f5565b82525050565b60006060820190506106236000830186610556565b818103602083015261063581856105bc565b905061064460408301846105ff565b949350505050565b6000604082019050818103600083015261066681856105bc565b905061067560208301846105ff565b9392505050565b600080fd5b600080fd5b7f4e487b7100000000000000000000000000000000000000000000000000000000600052604160045260246000fd5b6106be826105ab565b810181811067ffffffffffffffff821117156106dd576106dc610686565b5b80604052505050565b60006106f06104b7565b90506106fc82826106b5565b919050565b600067ffffffffffffffff82111561071c5761071b610686565b5b610725826105ab565b9050602081019050919050565b82818337600083830152505050565b600061075461074f84610701565b6106e6565b9050828152602081018484840111156107705761076f610681565b5b61077b848285610732565b509392505050565b600082601f8301126107985761079761067c565b5b81356107a8848260208601610741565b91505092915050565b6107ba816105f5565b81146107c557600080fd5b50565b6000813590506107d7816107b1565b92915050565b6000806000606084860312156107f6576107f56104c1565b5b600061080486828701610514565b935050602084013567ffffffffffffffff811115610825576108246104c6565b5b61083186828701610783565b9250506040610842868287016107c8565b9150509250925092565b7f4e487b7100000000000000000000000000000000000000000000000000000000600052602260045260246000fd5b6000600282049050600182168061089357607f821691505b6020821081036108a6576108a561084c565b5b50919050565b7f43726564656e7469616c20616c72656164792069737375656400000000000000600082015250565b60006108e2601983610570565b91506108ed826108ac565b602082019050919050565b60006020820190508181036000830152610911816108d5565b9050919050565b60008190508160005260206000209050919050565b60006020601f8301049050919050565b600082821b905092915050565b60006008830261097a7fffffffffffffffffffffffffffffffffffffffffffffffffffffffffffffffff8261093d565b610984868361093d565b95508019841693508086168417925050509392505050565b6000819050919050565b6000819050919050565b60006109cb6109c66109c18461099c565b6109a6565b61099c565b9050919050565b6000819050919050565b6109e5836109b0565b6109f96109f1826109d2565b84845461094a565b825550505050565b600090565b610a0e610a01565b610a198184846109dc565b505050565b5b81811015610a3d57610a32600082610a06565b600181019050610a1f565b5050565b601f821115610a8257610a5381610918565b610a5c8461092d565b81016020851015610a6b578190505b610a7f610a778561092d565b830182610a1e565b50505b505050565b600082821c905092915050565b6000610aa560001984600802610a87565b1980831691505092915050565b6000610abe8383610a94565b9150826002028217905092915050565b610ad782610565565b67ffffffffffffffff811115610af057610aef610686565b5b610afa825461087b565b610b05828285610a41565b600060209050601f831160018114610b385760008415610b26578287015190505b610b308582610ab2565b865550610b98565b601f198416610b4686610918565b60005b82811015610b6e57848901518255600182019150602085019450602081019050610b49565b86831015610b8b5784890151610b87601f891682610a94565b8355505b6001600288020188555050505b50505050505056fea26469706673582212203b49c61d9853a6e6b4b17cb1f9f856915bb3c0184022f2a6296fae81b98b58e364736f6c63430008130033",
  "immutableReferences": {},
  "source": "// SPDX-License-Identifier: MIT\npragma solidity ^0.8.0;\n\ncontract VerifiableCredentialIssuer {\n    struct VerifiableCredential {\n        address holder;\n        string credential;\n        bytes32 signature;\n    }\n\n    mapping(address => VerifiableCredential) public credentials;\n\n    event CredentialIssued(address indexed holder, string credential, bytes32 signature);\n\n    function issueCredential(address holder, string memory credential, bytes32 signature) external {\n        require(credentials[holder].holder == address(0), \"Credential already issued\");\n\n        VerifiableCredential memory newCredential = VerifiableCredential({\n            holder: holder,\n            credential: credential,\n            signature: signature\n        });\n\n        credentials[holder] = newCredential;\n        emit CredentialIssued(holder, credential, signature);\n    }\n\n    function getIssuedCredential(address holder) external view returns (string memory, bytes32) {\n        return (credentials[holder].credential, credentials[holder].signature);\n    }\n}\n",
  "sourcePath": "/home/timothy/Documents/projects/chainvote/solidity/decentralised_identity/contracts/Credentials.sol",
  "compiler": {
    "name": "solc",
    "version": "0.8.19+commit.7dd6d404.Emscripten.clang"
  },
  "schemaVersion": "3.4.16",
  "updatedAt": "2024-02-01T22:09:39.140Z",
  "networkType": "ethereum",
  "devdoc": {
    "kind": "dev",
    "methods": {},
    "version": 1
  },
  "userdoc": {
    "kind": "user",
    "methods": {},
    "version": 1
  }
}