{
  "contractName": "DecentralizedIdentity",
  "abi": [
    {
      "inputs": [
        {
          "internalType": "address",
          "name": "",
          "type": "address"
        },
        {
          "internalType": "uint256",
          "name": "",
          "type": "uint256"
        }
      ],
      "name": "userIdentities",
      "outputs": [
        {
          "internalType": "string",
          "name": "ipfshash",
          "type": "string"
        }
      ],
      "stateMutability": "view",
      "type": "function"
    },
    {
      "inputs": [
        {
          "internalType": "string",
          "name": "_ipfshash",
          "type": "string"
        }
      ],
      "name": "createIdentity",
      "outputs": [],
      "stateMutability": "nonpayable",
      "type": "function"
    },
    {
      "inputs": [
        {
          "internalType": "address",
          "name": "_user",
          "type": "address"
        }
      ],
      "name": "getAllIdentities",
      "outputs": [
        {
          "components": [
            {
              "internalType": "string",
              "name": "ipfshash",
              "type": "string"
            }
          ],
          "internalType": "struct DecentralizedIdentity.UserData[]",
          "name": "",
          "type": "tuple[]"
        }
      ],
      "stateMutability": "view",
      "type": "function"
    },
    {
      "inputs": [
        {
          "internalType": "address",
          "name": "_user",
          "type": "address"
        },
        {
          "internalType": "uint256",
          "name": "_index",
          "type": "uint256"
        }
      ],
      "name": "getIdentity",
      "outputs": [
        {
          "internalType": "string",
          "name": "",
          "type": "string"
        }
      ],
      "stateMutability": "view",
      "type": "function"
    }
  ],
  "bytecode": "0x608060405234801561001057600080fd5b50610d4e806100206000396000f3fe608060405234801561001057600080fd5b506004361061004c5760003560e01c806342ade7841461005157806382e10e7f1461006d5780639bde439a1461009d578063e66bfb42146100cd575b600080fd5b61006b6004803603810190610066919061065c565b6100fd565b005b61008760048036038101906100829190610739565b61018a565b60405161009491906107f8565b60405180910390f35b6100b760048036038101906100b2919061081a565b610249565b6040516100c4919061097d565b60405180910390f35b6100e760048036038101906100e29190610739565b610374565b6040516100f491906107f8565b60405180910390f35b6000803373ffffffffffffffffffffffffffffffffffffffff1673ffffffffffffffffffffffffffffffffffffffff1681526020019081526020016000206040518060200160405280838152509080600181540180825580915050600190039060005260206000200160009091909190915060008201518160000190816101849190610bab565b50505050565b600060205281600052604060002081815481106101a657600080fd5b90600052602060002001600091509150508060000180546101c6906109ce565b80601f01602080910402602001604051908101604052809291908181526020018280546101f2906109ce565b801561023f5780601f106102145761010080835404028352916020019161023f565b820191906000526020600020905b81548152906001019060200180831161022257829003601f168201915b5050505050905081565b60606000808373ffffffffffffffffffffffffffffffffffffffff1673ffffffffffffffffffffffffffffffffffffffff168152602001908152602001600020805480602002602001604051908101604052809291908181526020016000905b82821015610369578382906000526020600020016040518060200160405290816000820180546102d8906109ce565b80601f0160208091040260200160405190810160405280929190818152602001828054610304906109ce565b80156103515780601f1061032657610100808354040283529160200191610351565b820191906000526020600020905b81548152906001019060200180831161033457829003601f168201915b505050505081525050815260200190600101906102a9565b505050509050919050565b60606000808473ffffffffffffffffffffffffffffffffffffffff1673ffffffffffffffffffffffffffffffffffffffff1681526020019081526020016000208054905082106103f9576040517f08c379a00000000000000000000000000000000000000000000000000000000081526004016103f090610cc9565b60405180910390fd5b60008060008573ffffffffffffffffffffffffffffffffffffffff1673ffffffffffffffffffffffffffffffffffffffff168152602001908152602001600020838154811061044b5761044a610ce9565b5b90600052602060002001604051806020016040529081600082018054610470906109ce565b80601f016020809104026020016040519081016040528092919081815260200182805461049c906109ce565b80156104e95780601f106104be576101008083540402835291602001916104e9565b820191906000526020600020905b8154815290600101906020018083116104cc57829003601f168201915b5050505050815250509050806000015191505092915050565b6000604051905090565b600080fd5b600080fd5b600080fd5b600080fd5b6000601f19601f8301169050919050565b7f4e487b7100000000000000000000000000000000000000000000000000000000600052604160045260246000fd5b61056982610520565b810181811067ffffffffffffffff8211171561058857610587610531565b5b80604052505050565b600061059b610502565b90506105a78282610560565b919050565b600067ffffffffffffffff8211156105c7576105c6610531565b5b6105d082610520565b9050602081019050919050565b82818337600083830152505050565b60006105ff6105fa846105ac565b610591565b90508281526020810184848401111561061b5761061a61051b565b5b6106268482856105dd565b509392505050565b600082601f83011261064357610642610516565b5b81356106538482602086016105ec565b91505092915050565b6000602082840312156106725761067161050c565b5b600082013567ffffffffffffffff8111156106905761068f610511565b5b61069c8482850161062e565b91505092915050565b600073ffffffffffffffffffffffffffffffffffffffff82169050919050565b60006106d0826106a5565b9050919050565b6106e0816106c5565b81146106eb57600080fd5b50565b6000813590506106fd816106d7565b92915050565b6000819050919050565b61071681610703565b811461072157600080fd5b50565b6000813590506107338161070d565b92915050565b600080604083850312156107505761074f61050c565b5b600061075e858286016106ee565b925050602061076f85828601610724565b9150509250929050565b600081519050919050565b600082825260208201905092915050565b60005b838110156107b3578082015181840152602081019050610798565b60008484015250505050565b60006107ca82610779565b6107d48185610784565b93506107e4818560208601610795565b6107ed81610520565b840191505092915050565b6000602082019050818103600083015261081281846107bf565b905092915050565b6000602082840312156108305761082f61050c565b5b600061083e848285016106ee565b91505092915050565b600081519050919050565b600082825260208201905092915050565b6000819050602082019050919050565b600082825260208201905092915050565b600061088f82610779565b6108998185610873565b93506108a9818560208601610795565b6108b281610520565b840191505092915050565b600060208301600083015184820360008601526108da8282610884565b9150508091505092915050565b60006108f383836108bd565b905092915050565b6000602082019050919050565b600061091382610847565b61091d8185610852565b93508360208202850161092f85610863565b8060005b8581101561096b578484038952815161094c85826108e7565b9450610957836108fb565b925060208a01995050600181019050610933565b50829750879550505050505092915050565b600060208201905081810360008301526109978184610908565b905092915050565b7f4e487b7100000000000000000000000000000000000000000000000000000000600052602260045260246000fd5b600060028204905060018216806109e657607f821691505b6020821081036109f9576109f861099f565b5b50919050565b60008190508160005260206000209050919050565b60006020601f8301049050919050565b600082821b905092915050565b600060088302610a617fffffffffffffffffffffffffffffffffffffffffffffffffffffffffffffffff82610a24565b610a6b8683610a24565b95508019841693508086168417925050509392505050565b6000819050919050565b6000610aa8610aa3610a9e84610703565b610a83565b610703565b9050919050565b6000819050919050565b610ac283610a8d565b610ad6610ace82610aaf565b848454610a31565b825550505050565b600090565b610aeb610ade565b610af6818484610ab9565b505050565b5b81811015610b1a57610b0f600082610ae3565b600181019050610afc565b5050565b601f821115610b5f57610b30816109ff565b610b3984610a14565b81016020851015610b48578190505b610b5c610b5485610a14565b830182610afb565b50505b505050565b600082821c905092915050565b6000610b8260001984600802610b64565b1980831691505092915050565b6000610b9b8383610b71565b9150826002028217905092915050565b610bb482610779565b67ffffffffffffffff811115610bcd57610bcc610531565b5b610bd782546109ce565b610be2828285610b1e565b600060209050601f831160018114610c155760008415610c03578287015190505b610c0d8582610b8f565b865550610c75565b601f198416610c23866109ff565b60005b82811015610c4b57848901518255600182019150602085019450602081019050610c26565b86831015610c685784890151610c64601f891682610b71565b8355505b6001600288020188555050505b505050505050565b7f4964656e7469747920696e646578206f7574206f6620626f756e647300000000600082015250565b6000610cb3601c83610784565b9150610cbe82610c7d565b602082019050919050565b60006020820190508181036000830152610ce281610ca6565b9050919050565b7f4e487b7100000000000000000000000000000000000000000000000000000000600052603260045260246000fdfea2646970667358221220984422d7f2d23b1207b9d9eab9ac633c12f18146a3411292d7a22a4ca5d0cbd764736f6c63430008130033",
  "immutableReferences": {},
  "source": "// SPDX-License-Identifier: MIT\npragma solidity ^0.8.0;\n\ncontract DecentralizedIdentity {\n    struct UserData {\n        // IPFS hash holding some user's data\n        string ipfshash;\n        }\n    \n    struct CredentialRequests {\n        string ipfshash;\n    }\n\n\n    mapping(address => UserData[]) public userIdentities;\n\n\n\n    function createIdentity(string memory _ipfshash) public {\n        userIdentities[msg.sender].push(UserData(_ipfshash));\n    }\n\n    function getAllIdentities(address _user) public view returns (UserData[] memory) {\n        return userIdentities[_user];\n    }\n\n    function getIdentity(address _user, uint256 _index) public view returns (string memory) {\n        require(_index < userIdentities[_user].length, \"Identity index out of bounds\");\n        UserData memory identity = userIdentities[_user][_index];\n        return (identity.ipfshash);\n    }\n}\n",
  "sourcePath": "/home/halleluyah/Documents/chainvote-1/voting_identity/contracts/Identity.sol",
  "compiler": {
    "name": "solc",
    "version": "0.8.19+commit.7dd6d404.Emscripten.clang"
  },
  "schemaVersion": "3.4.16",
  "updatedAt": "2024-02-01T22:29:11.029Z",
  "devdoc": {
    "kind": "dev",
    "methods": {},
    "version": 1
  },
  "userdoc": {
    "kind": "user",
    "methods": {},
    "version": 1
  }
}