{
  "contractName": "DecentralizedVoting",
  "abi": [
    {
      "inputs": [],
      "stateMutability": "nonpayable",
      "type": "constructor"
    },
    {
      "inputs": [],
      "name": "candidateCount",
      "outputs": [
        {
          "internalType": "uint256",
          "name": "",
          "type": "uint256"
        }
      ],
      "stateMutability": "view",
      "type": "function",
      "constant": true
    },
    {
      "inputs": [
        {
          "internalType": "uint256",
          "name": "",
          "type": "uint256"
        }
      ],
      "name": "candidates",
      "outputs": [
        {
          "internalType": "uint256",
          "name": "id",
          "type": "uint256"
        },
        {
          "internalType": "string",
          "name": "name",
          "type": "string"
        },
        {
          "internalType": "uint256",
          "name": "voteCount",
          "type": "uint256"
        }
      ],
      "stateMutability": "view",
      "type": "function",
      "constant": true
    },
    {
      "inputs": [
        {
          "internalType": "address",
          "name": "",
          "type": "address"
        }
      ],
      "name": "voters",
      "outputs": [
        {
          "internalType": "bool",
          "name": "",
          "type": "bool"
        }
      ],
      "stateMutability": "view",
      "type": "function",
      "constant": true
    },
    {
      "inputs": [
        {
          "internalType": "uint256",
          "name": "_candidateID",
          "type": "uint256"
        }
      ],
      "name": "Vote",
      "outputs": [],
      "stateMutability": "payable",
      "type": "function",
      "payable": true
    },
    {
      "inputs": [
        {
          "internalType": "uint256",
          "name": "_candidateID",
          "type": "uint256"
        }
      ],
      "name": "getVotesForCandidate",
      "outputs": [
        {
          "internalType": "uint256",
          "name": "",
          "type": "uint256"
        }
      ],
      "stateMutability": "view",
      "type": "function",
      "constant": true
    }
  ],
  "bytecode": "0x60806040523480156200001157600080fd5b50620000586040518060400160405280601181526020017f4f6c75736567756e204f626173616e6a6f0000000000000000000000000000008152506200017660201b60201c565b6200009e6040518060400160405280601781526020017f476f6f646c75636b204542656c65204a6f6e617468616e0000000000000000008152506200017660201b60201c565b620000e46040518060400160405280600a81526020017f4d4b4f204162696f6c61000000000000000000000000000000000000000000008152506200017660201b60201c565b6200012a6040518060400160405280600e81526020017f4174696b752041627562616b61720000000000000000000000000000000000008152506200017660201b60201c565b620001706040518060400160405280601181526020017f426f6c612041686d65642054696e7562750000000000000000000000000000008152506200017660201b60201c565b620005d2565b600260008154809291906200018b906200022e565b9190505550604051806060016040528060025481526020018281526020016000815250600160006002548152602001908152602001600020600082015181600001556020820151816001019081620001e49190620004eb565b506040820151816002015590505050565b7f4e487b7100000000000000000000000000000000000000000000000000000000600052601160045260246000fd5b6000819050919050565b60006200023b8262000224565b91507fffffffffffffffffffffffffffffffffffffffffffffffffffffffffffffffff820362000270576200026f620001f5565b5b600182019050919050565b600081519050919050565b7f4e487b7100000000000000000000000000000000000000000000000000000000600052604160045260246000fd5b7f4e487b7100000000000000000000000000000000000000000000000000000000600052602260045260246000fd5b60006002820490506001821680620002fd57607f821691505b602082108103620003135762000312620002b5565b5b50919050565b60008190508160005260206000209050919050565b60006020601f8301049050919050565b600082821b905092915050565b6000600883026200037d7fffffffffffffffffffffffffffffffffffffffffffffffffffffffffffffffff826200033e565b6200038986836200033e565b95508019841693508086168417925050509392505050565b6000819050919050565b6000620003cc620003c6620003c08462000224565b620003a1565b62000224565b9050919050565b6000819050919050565b620003e883620003ab565b62000400620003f782620003d3565b8484546200034b565b825550505050565b600090565b6200041762000408565b62000424818484620003dd565b505050565b5b818110156200044c57620004406000826200040d565b6001810190506200042a565b5050565b601f8211156200049b57620004658162000319565b62000470846200032e565b8101602085101562000480578190505b620004986200048f856200032e565b83018262000429565b50505b505050565b600082821c905092915050565b6000620004c060001984600802620004a0565b1980831691505092915050565b6000620004db8383620004ad565b9150826002028217905092915050565b620004f6826200027b565b67ffffffffffffffff81111562000512576200051162000286565b5b6200051e8254620002e4565b6200052b82828562000450565b600060209050601f8311600181146200056357600084156200054e578287015190505b6200055a8582620004cd565b865550620005ca565b601f198416620005738662000319565b60005b828110156200059d5784890151825560018201915060208501945060208101905062000576565b86831015620005bd5784890151620005b9601f891682620004ad565b8355505b6001600288020188555050505b505050505050565b61068780620005e26000396000f3fe60806040526004361061004a5760003560e01c80633477ee2e1461004f578063530178721461008e578063a3ec138d146100cb578063a9a981a314610108578063dcd6a5cd14610133575b600080fd5b34801561005b57600080fd5b5061007660048036038101906100719190610394565b61014f565b60405161008593929190610460565b60405180910390f35b34801561009a57600080fd5b506100b560048036038101906100b09190610394565b610201565b6040516100c2919061049e565b60405180910390f35b3480156100d757600080fd5b506100f260048036038101906100ed9190610517565b61023b565b6040516100ff919061055f565b60405180910390f35b34801561011457600080fd5b5061011d61025b565b60405161012a919061049e565b60405180910390f35b61014d60048036038101906101489190610394565b610261565b005b6001602052806000526040600020600091509050806000015490806001018054610178906105a9565b80601f01602080910402602001604051908101604052809291908181526020018280546101a4906105a9565b80156101f15780601f106101c6576101008083540402835291602001916101f1565b820191906000526020600020905b8154815290600101906020018083116101d457829003601f168201915b5050505050908060020154905083565b6000808211801561021457506002548211155b61021d57600080fd5b60016000838152602001908152602001600020600201549050919050565b60006020528060005260406000206000915054906101000a900460ff1681565b60025481565b6000803373ffffffffffffffffffffffffffffffffffffffff1673ffffffffffffffffffffffffffffffffffffffff16815260200190815260200160002060009054906101000a900460ff16156102b757600080fd5b600081141580156102ca57506002548111155b6102d357600080fd5b60016000803373ffffffffffffffffffffffffffffffffffffffff1673ffffffffffffffffffffffffffffffffffffffff16815260200190815260200160002060006101000a81548160ff02191690831515021790555060016000828152602001908152602001600020600201600081548092919061035190610609565b919050555050565b600080fd5b6000819050919050565b6103718161035e565b811461037c57600080fd5b50565b60008135905061038e81610368565b92915050565b6000602082840312156103aa576103a9610359565b5b60006103b88482850161037f565b91505092915050565b6103ca8161035e565b82525050565b600081519050919050565b600082825260208201905092915050565b60005b8381101561040a5780820151818401526020810190506103ef565b60008484015250505050565b6000601f19601f8301169050919050565b6000610432826103d0565b61043c81856103db565b935061044c8185602086016103ec565b61045581610416565b840191505092915050565b600060608201905061047560008301866103c1565b81810360208301526104878185610427565b905061049660408301846103c1565b949350505050565b60006020820190506104b360008301846103c1565b92915050565b600073ffffffffffffffffffffffffffffffffffffffff82169050919050565b60006104e4826104b9565b9050919050565b6104f4816104d9565b81146104ff57600080fd5b50565b600081359050610511816104eb565b92915050565b60006020828403121561052d5761052c610359565b5b600061053b84828501610502565b91505092915050565b60008115159050919050565b61055981610544565b82525050565b60006020820190506105746000830184610550565b92915050565b7f4e487b7100000000000000000000000000000000000000000000000000000000600052602260045260246000fd5b600060028204905060018216806105c157607f821691505b6020821081036105d4576105d361057a565b5b50919050565b7f4e487b7100000000000000000000000000000000000000000000000000000000600052601160045260246000fd5b60006106148261035e565b91507fffffffffffffffffffffffffffffffffffffffffffffffffffffffffffffffff8203610646576106456105da565b5b60018201905091905056fea26469706673582212201e7a0b7c5abd620f6d15c3584e00ae70cccc9196aa82aa7eea17b7b37023e44964736f6c63430008130033",
  "immutableReferences": {},
  "source": "// SPDX-License-Identifier: MIT\npragma solidity >=0.7.0 <0.9.0;\n\ncontract DecentralizedVoting {\n    struct Candidate {\n        uint id;\n        string name;\n        uint voteCount;\n    }\n\n    mapping (address => bool) public voters;\n    mapping (uint => Candidate) public candidates;\n    uint public candidateCount;\n\n\n    function addCandidate (string memory _name) private {\n        candidateCount ++;\n        candidates[candidateCount] = Candidate(candidateCount, _name, 0);\n    }\n\n    constructor () public{\n        addCandidate(\"Olusegun Obasanjo\");\n        addCandidate(\"Goodluck EBele Jonathan\");\n        addCandidate(\"MKO Abiola\");\n        addCandidate(\"Atiku Abubakar\");\n        addCandidate(\"Bola Ahmed Tinubu\");\n    }\n    function Vote(uint _candidateID) public payable {\n        require(!voters[msg.sender]);\n        require(_candidateID!=0 && _candidateID<=candidateCount);\n        voters[msg.sender]=true;\n        candidates[_candidateID].voteCount ++;\n    }\n    function getVotesForCandidate(uint _candidateID) public view returns (uint) {\n        require(_candidateID > 0 && _candidateID <= candidateCount);  // Validate candidate ID\n        return candidates[_candidateID].voteCount;\n    }\n\n}",
  "sourcePath": "/home/halleluyah/Documents/chainvote-1/voting_identity/contracts/voting.sol",
  "compiler": {
    "name": "solc",
    "version": "0.8.19+commit.7dd6d404.Emscripten.clang"
  },
  "schemaVersion": "3.4.16",
  "updatedAt": "2024-02-01T22:40:36.057Z",
  "networkType": "ethereum",
  "devdoc": {
    "kind": "dev",
    "methods": {},
    "version": 1
  },
  "userdoc": {
    "kind": "user",
    "methods": {},
    "version": 1
  }
}