{
  "contractName": "DecentralizedVoting",
  "abi": [
    {
      "inputs": [],
      "stateMutability": "nonpayable",
      "type": "constructor"
    },
    {
      "inputs": [],
      "name": "candidateCount",
      "outputs": [
        {
          "internalType": "uint256",
          "name": "",
          "type": "uint256"
        }
      ],
      "stateMutability": "view",
      "type": "function",
      "constant": true
    },
    {
      "inputs": [
        {
          "internalType": "uint256",
          "name": "",
          "type": "uint256"
        }
      ],
      "name": "candidates",
      "outputs": [
        {
          "internalType": "uint256",
          "name": "id",
          "type": "uint256"
        },
        {
          "internalType": "string",
          "name": "name",
          "type": "string"
        },
        {
          "internalType": "uint256",
          "name": "voteCount",
          "type": "uint256"
        }
      ],
      "stateMutability": "view",
      "type": "function",
      "constant": true
    },
    {
      "inputs": [
        {
          "internalType": "address",
          "name": "",
          "type": "address"
        }
      ],
      "name": "voters",
      "outputs": [
        {
          "internalType": "bool",
          "name": "",
          "type": "bool"
        }
      ],
      "stateMutability": "view",
      "type": "function",
      "constant": true
    },
    {
      "inputs": [
        {
          "internalType": "string",
          "name": "_name",
          "type": "string"
        }
      ],
      "name": "addCandidate",
      "outputs": [],
      "stateMutability": "nonpayable",
      "type": "function"
    },
    {
      "inputs": [
        {
          "internalType": "uint256",
          "name": "_candidateID",
          "type": "uint256"
        }
      ],
      "name": "Vote",
      "outputs": [],
      "stateMutability": "payable",
      "type": "function",
      "payable": true
    },
    {
      "inputs": [
        {
          "internalType": "uint256",
          "name": "_candidateID",
          "type": "uint256"
        }
      ],
      "name": "getVotesForCandidate",
      "outputs": [
        {
          "internalType": "uint256",
          "name": "",
          "type": "uint256"
        }
      ],
      "stateMutability": "view",
      "type": "function",
      "constant": true
    }
  ],
  "bytecode": "0x60806040523480156200001157600080fd5b50620000586040518060400160405280601181526020017f4f6c75736567756e204f626173616e6a6f0000000000000000000000000000008152506200017660201b60201c565b6200009e6040518060400160405280601781526020017f476f6f646c75636b204542656c65204a6f6e617468616e0000000000000000008152506200017660201b60201c565b620000e46040518060400160405280600a81526020017f4d4b4f204162696f6c61000000000000000000000000000000000000000000008152506200017660201b60201c565b6200012a6040518060400160405280600e81526020017f4174696b752041627562616b61720000000000000000000000000000000000008152506200017660201b60201c565b620001706040518060400160405280601181526020017f426f6c612041686d65642054696e7562750000000000000000000000000000008152506200017660201b60201c565b620005d2565b600260008154809291906200018b906200022e565b9190505550604051806060016040528060025481526020018281526020016000815250600160006002548152602001908152602001600020600082015181600001556020820151816001019081620001e49190620004eb565b506040820151816002015590505050565b7f4e487b7100000000000000000000000000000000000000000000000000000000600052601160045260246000fd5b6000819050919050565b60006200023b8262000224565b91507fffffffffffffffffffffffffffffffffffffffffffffffffffffffffffffffff820362000270576200026f620001f5565b5b600182019050919050565b600081519050919050565b7f4e487b7100000000000000000000000000000000000000000000000000000000600052604160045260246000fd5b7f4e487b7100000000000000000000000000000000000000000000000000000000600052602260045260246000fd5b60006002820490506001821680620002fd57607f821691505b602082108103620003135762000312620002b5565b5b50919050565b60008190508160005260206000209050919050565b60006020601f8301049050919050565b600082821b905092915050565b6000600883026200037d7fffffffffffffffffffffffffffffffffffffffffffffffffffffffffffffffff826200033e565b6200038986836200033e565b95508019841693508086168417925050509392505050565b6000819050919050565b6000620003cc620003c6620003c08462000224565b620003a1565b62000224565b9050919050565b6000819050919050565b620003e883620003ab565b62000400620003f782620003d3565b8484546200034b565b825550505050565b600090565b6200041762000408565b62000424818484620003dd565b505050565b5b818110156200044c57620004406000826200040d565b6001810190506200042a565b5050565b601f8211156200049b57620004658162000319565b62000470846200032e565b8101602085101562000480578190505b620004986200048f856200032e565b83018262000429565b50505b505050565b600082821c905092915050565b6000620004c060001984600802620004a0565b1980831691505092915050565b6000620004db8383620004ad565b9150826002028217905092915050565b620004f6826200027b565b67ffffffffffffffff81111562000512576200051162000286565b5b6200051e8254620002e4565b6200052b82828562000450565b600060209050601f8311600181146200056357600084156200054e578287015190505b6200055a8582620004cd565b865550620005ca565b601f198416620005738662000319565b60005b828110156200059d5784890151825560018201915060208501945060208101905062000576565b86831015620005bd5784890151620005b9601f891682620004ad565b8355505b6001600288020188555050505b505050505050565b610b4180620005e26000396000f3fe6080604052600436106100555760003560e01c80633477ee2e1461005a578063462e91ec1461009957806353017872146100c2578063a3ec138d146100ff578063a9a981a31461013c578063dcd6a5cd14610167575b600080fd5b34801561006657600080fd5b50610081600480360381019061007c9190610452565b610183565b6040516100909392919061051e565b60405180910390f35b3480156100a557600080fd5b506100c060048036038101906100bb9190610691565b610235565b005b3480156100ce57600080fd5b506100e960048036038101906100e49190610452565b6102b0565b6040516100f691906106da565b60405180910390f35b34801561010b57600080fd5b5061012660048036038101906101219190610753565b6102ea565b604051610133919061079b565b60405180910390f35b34801561014857600080fd5b5061015161030a565b60405161015e91906106da565b60405180910390f35b610181600480360381019061017c9190610452565b610310565b005b60016020528060005260406000206000915090508060000154908060010180546101ac906107e5565b80601f01602080910402602001604051908101604052809291908181526020018280546101d8906107e5565b80156102255780601f106101fa57610100808354040283529160200191610225565b820191906000526020600020905b81548152906001019060200180831161020857829003601f168201915b5050505050908060020154905083565b6002600081548092919061024890610845565b919050555060405180606001604052806002548152602001828152602001600081525060016000600254815260200190815260200160002060008201518160000155602082015181600101908161029f9190610a39565b506040820151816002015590505050565b600080821180156102c357506002548211155b6102cc57600080fd5b60016000838152602001908152602001600020600201549050919050565b60006020528060005260406000206000915054906101000a900460ff1681565b60025481565b6000803373ffffffffffffffffffffffffffffffffffffffff1673ffffffffffffffffffffffffffffffffffffffff16815260200190815260200160002060009054906101000a900460ff161561036657600080fd5b6000811415801561037957506002548111155b61038257600080fd5b60016000803373ffffffffffffffffffffffffffffffffffffffff1673ffffffffffffffffffffffffffffffffffffffff16815260200190815260200160002060006101000a81548160ff02191690831515021790555060016000828152602001908152602001600020600201600081548092919061040090610845565b919050555050565b6000604051905090565b600080fd5b600080fd5b6000819050919050565b61042f8161041c565b811461043a57600080fd5b50565b60008135905061044c81610426565b92915050565b60006020828403121561046857610467610412565b5b60006104768482850161043d565b91505092915050565b6104888161041c565b82525050565b600081519050919050565b600082825260208201905092915050565b60005b838110156104c85780820151818401526020810190506104ad565b60008484015250505050565b6000601f19601f8301169050919050565b60006104f08261048e565b6104fa8185610499565b935061050a8185602086016104aa565b610513816104d4565b840191505092915050565b6000606082019050610533600083018661047f565b818103602083015261054581856104e5565b9050610554604083018461047f565b949350505050565b600080fd5b600080fd5b7f4e487b7100000000000000000000000000000000000000000000000000000000600052604160045260246000fd5b61059e826104d4565b810181811067ffffffffffffffff821117156105bd576105bc610566565b5b80604052505050565b60006105d0610408565b90506105dc8282610595565b919050565b600067ffffffffffffffff8211156105fc576105fb610566565b5b610605826104d4565b9050602081019050919050565b82818337600083830152505050565b600061063461062f846105e1565b6105c6565b9050828152602081018484840111156106505761064f610561565b5b61065b848285610612565b509392505050565b600082601f8301126106785761067761055c565b5b8135610688848260208601610621565b91505092915050565b6000602082840312156106a7576106a6610412565b5b600082013567ffffffffffffffff8111156106c5576106c4610417565b5b6106d184828501610663565b91505092915050565b60006020820190506106ef600083018461047f565b92915050565b600073ffffffffffffffffffffffffffffffffffffffff82169050919050565b6000610720826106f5565b9050919050565b61073081610715565b811461073b57600080fd5b50565b60008135905061074d81610727565b92915050565b60006020828403121561076957610768610412565b5b60006107778482850161073e565b91505092915050565b60008115159050919050565b61079581610780565b82525050565b60006020820190506107b0600083018461078c565b92915050565b7f4e487b7100000000000000000000000000000000000000000000000000000000600052602260045260246000fd5b600060028204905060018216806107fd57607f821691505b6020821081036108105761080f6107b6565b5b50919050565b7f4e487b7100000000000000000000000000000000000000000000000000000000600052601160045260246000fd5b60006108508261041c565b91507fffffffffffffffffffffffffffffffffffffffffffffffffffffffffffffffff820361088257610881610816565b5b600182019050919050565b60008190508160005260206000209050919050565b60006020601f8301049050919050565b600082821b905092915050565b6000600883026108ef7fffffffffffffffffffffffffffffffffffffffffffffffffffffffffffffffff826108b2565b6108f986836108b2565b95508019841693508086168417925050509392505050565b6000819050919050565b600061093661093161092c8461041c565b610911565b61041c565b9050919050565b6000819050919050565b6109508361091b565b61096461095c8261093d565b8484546108bf565b825550505050565b600090565b61097961096c565b610984818484610947565b505050565b5b818110156109a85761099d600082610971565b60018101905061098a565b5050565b601f8211156109ed576109be8161088d565b6109c7846108a2565b810160208510156109d6578190505b6109ea6109e2856108a2565b830182610989565b50505b505050565b600082821c905092915050565b6000610a10600019846008026109f2565b1980831691505092915050565b6000610a2983836109ff565b9150826002028217905092915050565b610a428261048e565b67ffffffffffffffff811115610a5b57610a5a610566565b5b610a6582546107e5565b610a708282856109ac565b600060209050601f831160018114610aa35760008415610a91578287015190505b610a9b8582610a1d565b865550610b03565b601f198416610ab18661088d565b60005b82811015610ad957848901518255600182019150602085019450602081019050610ab4565b86831015610af65784890151610af2601f8916826109ff565b8355505b6001600288020188555050505b50505050505056fea264697066735822122097527433bd17e0fc7a5ff19a8d05916bd1a85cb06823743d22648c72ea2c101564736f6c63430008130033",
  "immutableReferences": {},
  "source": "// SPDX-License-Identifier: MIT\npragma solidity >=0.7.0 <0.9.0;\n\ncontract DecentralizedVoting {\n    struct Candidate {\n        uint id;\n        string name;\n        uint voteCount;\n    }\n\n    mapping (address => bool) public voters;\n    mapping (uint => Candidate) public candidates;\n    uint public candidateCount;\n\n\n    function addCandidate (string memory _name) public {\n        candidateCount ++;\n        candidates[candidateCount] = Candidate(candidateCount, _name, 0);\n    }\n\n    constructor () public{\n        addCandidate(\"Olusegun Obasanjo\");\n        addCandidate(\"Goodluck EBele Jonathan\");\n        addCandidate(\"MKO Abiola\");\n        addCandidate(\"Atiku Abubakar\");\n        addCandidate(\"Bola Ahmed Tinubu\");\n    }\n    function Vote(uint _candidateID) public payable {\n        require(!voters[msg.sender]);\n        require(_candidateID!=0 && _candidateID<=candidateCount);\n        voters[msg.sender]=true;\n        candidates[_candidateID].voteCount ++;\n    }\n    function getVotesForCandidate(uint _candidateID) public view returns (uint) {\n        require(_candidateID > 0 && _candidateID <= candidateCount);  // Validate candidate ID\n        return candidates[_candidateID].voteCount;\n    }\n\n}",
  "sourcePath": "/home/halleluyah/Documents/chainvote-1/voting_identity/contracts/voting.sol",
  "compiler": {
    "name": "solc",
    "version": "0.8.19+commit.7dd6d404.Emscripten.clang"
  },
  "schemaVersion": "3.4.16",
  "updatedAt": "2024-02-02T01:18:53.811Z",
  "networkType": "ethereum",
  "devdoc": {
    "kind": "dev",
    "methods": {},
    "version": 1
  },
  "userdoc": {
    "kind": "user",
    "methods": {},
    "version": 1
  }
}