{
  "contractName": "DecentralizedIdentity",
  "abi": [
    {
      "anonymous": false,
      "inputs": [
        {
          "indexed": true,
          "internalType": "address",
          "name": "user",
          "type": "address"
        },
        {
          "indexed": false,
          "internalType": "string",
          "name": "identity",
          "type": "string"
        }
      ],
      "name": "IdentityRegistered",
      "type": "event"
    },
    {
      "anonymous": false,
      "inputs": [
        {
          "indexed": true,
          "internalType": "address",
          "name": "user",
          "type": "address"
        }
      ],
      "name": "RequestCreated",
      "type": "event"
    },
    {
      "inputs": [
        {
          "internalType": "address",
          "name": "",
          "type": "address"
        }
      ],
      "name": "identities",
      "outputs": [
        {
          "internalType": "string",
          "name": "Identityipfs",
          "type": "string"
        }
      ],
      "stateMutability": "view",
      "type": "function",
      "constant": true
    },
    {
      "inputs": [
        {
          "internalType": "string",
          "name": "_Identityipfs",
          "type": "string"
        }
      ],
      "name": "createIdentity",
      "outputs": [],
      "stateMutability": "nonpayable",
      "type": "function"
    },
    {
      "inputs": [],
      "name": "getIdentity",
      "outputs": [
        {
          "internalType": "string",
          "name": "",
          "type": "string"
        }
      ],
      "stateMutability": "view",
      "type": "function",
      "constant": true
    }
  ],
  "bytecode": "0x608060405234801561001057600080fd5b50610a77806100206000396000f3fe608060405234801561001057600080fd5b50600436106100415760003560e01c806336afc6fa1461004657806342ade78414610064578063f653b81e14610080575b600080fd5b61004e6100b0565b60405161005b9190610442565b60405180910390f35b61007e600480360381019061007991906105ad565b610181565b005b61009a60048036038101906100959190610654565b61030c565b6040516100a79190610442565b60405180910390f35b60606000803373ffffffffffffffffffffffffffffffffffffffff1673ffffffffffffffffffffffffffffffffffffffff16815260200190815260200160002060000180546100fe906106b0565b80601f016020809104026020016040519081016040528092919081815260200182805461012a906106b0565b80156101775780601f1061014c57610100808354040283529160200191610177565b820191906000526020600020905b81548152906001019060200180831161015a57829003601f168201915b5050505050905090565b60008060003373ffffffffffffffffffffffffffffffffffffffff1673ffffffffffffffffffffffffffffffffffffffff16815260200190815260200160002060000180546101cf906106b0565b905014610211576040517f08c379a00000000000000000000000000000000000000000000000000000000081526004016102089061072d565b60405180910390fd5b6000815111610255576040517f08c379a000000000000000000000000000000000000000000000000000000000815260040161024c90610799565b60405180910390fd5b6040518060200160405280828152506000803373ffffffffffffffffffffffffffffffffffffffff1673ffffffffffffffffffffffffffffffffffffffff16815260200190815260200160002060008201518160000190816102b7919061096f565b509050503373ffffffffffffffffffffffffffffffffffffffff167f9b6805eb7a1bee8a797c79c5f2a39a182f3d37f8b8cce5ec42371000c8115dfd826040516103019190610442565b60405180910390a250565b600060205280600052604060002060009150905080600001805461032f906106b0565b80601f016020809104026020016040519081016040528092919081815260200182805461035b906106b0565b80156103a85780601f1061037d576101008083540402835291602001916103a8565b820191906000526020600020905b81548152906001019060200180831161038b57829003601f168201915b5050505050905081565b600081519050919050565b600082825260208201905092915050565b60005b838110156103ec5780820151818401526020810190506103d1565b60008484015250505050565b6000601f19601f8301169050919050565b6000610414826103b2565b61041e81856103bd565b935061042e8185602086016103ce565b610437816103f8565b840191505092915050565b6000602082019050818103600083015261045c8184610409565b905092915050565b6000604051905090565b600080fd5b600080fd5b600080fd5b600080fd5b7f4e487b7100000000000000000000000000000000000000000000000000000000600052604160045260246000fd5b6104ba826103f8565b810181811067ffffffffffffffff821117156104d9576104d8610482565b5b80604052505050565b60006104ec610464565b90506104f882826104b1565b919050565b600067ffffffffffffffff82111561051857610517610482565b5b610521826103f8565b9050602081019050919050565b82818337600083830152505050565b600061055061054b846104fd565b6104e2565b90508281526020810184848401111561056c5761056b61047d565b5b61057784828561052e565b509392505050565b600082601f83011261059457610593610478565b5b81356105a484826020860161053d565b91505092915050565b6000602082840312156105c3576105c261046e565b5b600082013567ffffffffffffffff8111156105e1576105e0610473565b5b6105ed8482850161057f565b91505092915050565b600073ffffffffffffffffffffffffffffffffffffffff82169050919050565b6000610621826105f6565b9050919050565b61063181610616565b811461063c57600080fd5b50565b60008135905061064e81610628565b92915050565b60006020828403121561066a5761066961046e565b5b60006106788482850161063f565b91505092915050565b7f4e487b7100000000000000000000000000000000000000000000000000000000600052602260045260246000fd5b600060028204905060018216806106c857607f821691505b6020821081036106db576106da610681565b5b50919050565b7f4964656e7469747920616c726561647920726567697374657265640000000000600082015250565b6000610717601b836103bd565b9150610722826106e1565b602082019050919050565b600060208201905081810360008301526107468161070a565b9050919050565b7f4964656e746974792063616e6e6f7420626520656d7074790000000000000000600082015250565b60006107836018836103bd565b915061078e8261074d565b602082019050919050565b600060208201905081810360008301526107b281610776565b9050919050565b60008190508160005260206000209050919050565b60006020601f8301049050919050565b600082821b905092915050565b60006008830261081b7fffffffffffffffffffffffffffffffffffffffffffffffffffffffffffffffff826107de565b61082586836107de565b95508019841693508086168417925050509392505050565b6000819050919050565b6000819050919050565b600061086c6108676108628461083d565b610847565b61083d565b9050919050565b6000819050919050565b61088683610851565b61089a61089282610873565b8484546107eb565b825550505050565b600090565b6108af6108a2565b6108ba81848461087d565b505050565b5b818110156108de576108d36000826108a7565b6001810190506108c0565b5050565b601f821115610923576108f4816107b9565b6108fd846107ce565b8101602085101561090c578190505b610920610918856107ce565b8301826108bf565b50505b505050565b600082821c905092915050565b600061094660001984600802610928565b1980831691505092915050565b600061095f8383610935565b9150826002028217905092915050565b610978826103b2565b67ffffffffffffffff81111561099157610990610482565b5b61099b82546106b0565b6109a68282856108e2565b600060209050601f8311600181146109d957600084156109c7578287015190505b6109d18582610953565b865550610a39565b601f1984166109e7866107b9565b60005b82811015610a0f578489015182556001820191506020850194506020810190506109ea565b86831015610a2c5784890151610a28601f891682610935565b8355505b6001600288020188555050505b50505050505056fea26469706673582212208e9e321ac2a237e216f1c1c5327d30f9c1e5a1e1aff666e7b0a634465fae03ea64736f6c63430008130033",
  "immutableReferences": {},
  "source": "// SPDX-License-Identifier: MIT\npragma solidity ^0.8.0;\n\ncontract DecentralizedIdentity {\n    struct Identity {\n        // IPFS hash holding some user's data\n        string Identityipfs;\n    }\n    \n    mapping(address => Identity) public identities;\n    // mapping(address => UserData[]) public userIdentities;\n\n    event IdentityRegistered(address indexed user, string identity);\n    event RequestCreated(address indexed user);\n\n    // Creating and retrieving user data\n    function createIdentity(string memory _Identityipfs) external {\n        require(bytes(identities[msg.sender].Identityipfs).length == 0, \"Identity already registered\");\n        require(bytes(_Identityipfs).length > 0, \"Identity cannot be empty\");\n\n        identities[msg.sender] = Identity(_Identityipfs);\n        emit IdentityRegistered(msg.sender, _Identityipfs);\n    }\n\n    function getIdentity() external view returns (string memory) {\n        return identities[msg.sender].Identityipfs;\n    }\n}\n",
  "sourcePath": "/home/timothy/Documents/projects/chainvote/voting_identity/contracts/Identity.sol",
  "compiler": {
    "name": "solc",
    "version": "0.8.19+commit.7dd6d404.Emscripten.clang"
  },
  "schemaVersion": "3.4.16",
  "updatedAt": "2024-02-02T01:21:10.901Z",
  "networkType": "ethereum",
  "devdoc": {
    "kind": "dev",
    "methods": {},
    "version": 1
  },
  "userdoc": {
    "kind": "user",
    "methods": {},
    "version": 1
  }
}