{
  "contractName": "VerifiableCredentialRequest",
  "abi": [
    {
      "inputs": [
        {
          "internalType": "address",
          "name": "_issuerContractAddress",
          "type": "address"
        }
      ],
      "stateMutability": "nonpayable",
      "type": "constructor"
    },
    {
      "anonymous": false,
      "inputs": [
        {
          "indexed": false,
          "internalType": "uint256",
          "name": "requestId",
          "type": "uint256"
        },
        {
          "indexed": true,
          "internalType": "address",
          "name": "requester",
          "type": "address"
        },
        {
          "indexed": false,
          "internalType": "string",
          "name": "identity",
          "type": "string"
        },
        {
          "indexed": false,
          "internalType": "enum VerifiableCredentialRequest.RequestStatus",
          "name": "status",
          "type": "uint8"
        }
      ],
      "name": "RequestCreated",
      "type": "event"
    },
    {
      "anonymous": false,
      "inputs": [
        {
          "indexed": false,
          "internalType": "uint256",
          "name": "requestId",
          "type": "uint256"
        },
        {
          "indexed": false,
          "internalType": "enum VerifiableCredentialRequest.RequestStatus",
          "name": "status",
          "type": "uint8"
        }
      ],
      "name": "RequestStatusUpdated",
      "type": "event"
    },
    {
      "inputs": [],
      "name": "issuerContract",
      "outputs": [
        {
          "internalType": "contract VerifiableCredentialIssuer",
          "name": "",
          "type": "address"
        }
      ],
      "stateMutability": "view",
      "type": "function",
      "constant": true
    },
    {
      "inputs": [],
      "name": "requestCount",
      "outputs": [
        {
          "internalType": "uint256",
          "name": "",
          "type": "uint256"
        }
      ],
      "stateMutability": "view",
      "type": "function",
      "constant": true
    },
    {
      "inputs": [
        {
          "internalType": "uint256",
          "name": "",
          "type": "uint256"
        }
      ],
      "name": "requests",
      "outputs": [
        {
          "internalType": "address",
          "name": "requester",
          "type": "address"
        },
        {
          "internalType": "string",
          "name": "identity",
          "type": "string"
        },
        {
          "internalType": "enum VerifiableCredentialRequest.RequestStatus",
          "name": "status",
          "type": "uint8"
        }
      ],
      "stateMutability": "view",
      "type": "function",
      "constant": true
    },
    {
      "inputs": [
        {
          "internalType": "string",
          "name": "_identity",
          "type": "string"
        }
      ],
      "name": "createRequest",
      "outputs": [],
      "stateMutability": "nonpayable",
      "type": "function"
    },
    {
      "inputs": [
        {
          "internalType": "uint256",
          "name": "_requestId",
          "type": "uint256"
        },
        {
          "internalType": "enum VerifiableCredentialRequest.RequestStatus",
          "name": "_status",
          "type": "uint8"
        }
      ],
      "name": "updateRequestStatus",
      "outputs": [],
      "stateMutability": "nonpayable",
      "type": "function"
    }
  ],
  "bytecode": "0x60806040523480156200001157600080fd5b506040516200128e3803806200128e8339818101604052810190620000379190620000e8565b806000806101000a81548173ffffffffffffffffffffffffffffffffffffffff021916908373ffffffffffffffffffffffffffffffffffffffff160217905550506200011a565b600080fd5b600073ffffffffffffffffffffffffffffffffffffffff82169050919050565b6000620000b08262000083565b9050919050565b620000c281620000a3565b8114620000ce57600080fd5b50565b600081519050620000e281620000b7565b92915050565b6000602082840312156200010157620001006200007e565b5b60006200011184828501620000d1565b91505092915050565b611164806200012a6000396000f3fe608060405234801561001057600080fd5b50600436106100575760003560e01c80630c43ae9c1461005c5780631b146ecf1461007a5780635923e87d146100965780635badbe4c146100b257806381d12c58146100d0575b600080fd5b610064610102565b60405161007191906106f2565b60405180910390f35b610094600480360381019061008f9190610867565b610126565b005b6100b060048036038101906100ab919061090b565b61027f565b005b6100ba61055b565b6040516100c7919061095a565b60405180910390f35b6100ea60048036038101906100e59190610975565b610561565b6040516100f993929190610ab9565b60405180910390f35b60008054906101000a900473ffffffffffffffffffffffffffffffffffffffff1681565b6002600081548092919061013990610b26565b919050555060405180606001604052803373ffffffffffffffffffffffffffffffffffffffff1681526020018281526020016000600281111561017f5761017e610a42565b5b81525060016000600254815260200190815260200160002060008201518160000160006101000a81548173ffffffffffffffffffffffffffffffffffffffff021916908373ffffffffffffffffffffffffffffffffffffffff16021790555060208201518160010190816101f39190610d70565b5060408201518160020160006101000a81548160ff0219169083600281111561021f5761021e610a42565b5b02179055509050503373ffffffffffffffffffffffffffffffffffffffff167f311b01297ccffdafac6a276d209b20356c4b786e7bc95c9dc32235a4d7a9c55560025483600060405161027493929190610e42565b60405180910390a250565b6002548211156102c4576040517f08c379a00000000000000000000000000000000000000000000000000000000081526004016102bb90610ecc565b60405180910390fd5b3373ffffffffffffffffffffffffffffffffffffffff166001600084815260200190815260200160002060000160009054906101000a900473ffffffffffffffffffffffffffffffffffffffff1673ffffffffffffffffffffffffffffffffffffffff1614610368576040517f08c379a000000000000000000000000000000000000000000000000000000000815260040161035f90610f5e565b60405180910390fd5b806001600084815260200190815260200160002060020160006101000a81548160ff021916908360028111156103a1576103a0610a42565b5b02179055507fb89994b054959719767a2fb672051485fe2b7fa8d48099f01d2be7086ba9828282826040516103d7929190610f7e565b60405180910390a1600160028111156103f3576103f2610a42565b5b81600281111561040657610405610a42565b5b036105575760008054906101000a900473ffffffffffffffffffffffffffffffffffffffff1673ffffffffffffffffffffffffffffffffffffffff1663f10705e633600160008681526020019081526020016000206001016105063360016000898152602001908152602001600020600101805461048390610b9d565b80601f01602080910402602001604051908101604052809291908181526020018280546104af90610b9d565b80156104fc5780601f106104d1576101008083540402835291602001916104fc565b820191906000526020600020905b8154815290600101906020018083116104df57829003601f168201915b5050505050610640565b6040518463ffffffff1660e01b815260040161052493929190611044565b600060405180830381600087803b15801561053e57600080fd5b505af1158015610552573d6000803e3d6000fd5b505050505b5050565b60025481565b60016020528060005260406000206000915090508060000160009054906101000a900473ffffffffffffffffffffffffffffffffffffffff16908060010180546105aa90610b9d565b80601f01602080910402602001604051908101604052809291908181526020018280546105d690610b9d565b80156106235780601f106105f857610100808354040283529160200191610623565b820191906000526020600020905b81548152906001019060200180831161060657829003601f168201915b5050505050908060020160009054906101000a900460ff16905083565b60008282604051602001610655929190611106565b60405160208183030381529060405280519060200120905092915050565b600073ffffffffffffffffffffffffffffffffffffffff82169050919050565b6000819050919050565b60006106b86106b36106ae84610673565b610693565b610673565b9050919050565b60006106ca8261069d565b9050919050565b60006106dc826106bf565b9050919050565b6106ec816106d1565b82525050565b600060208201905061070760008301846106e3565b92915050565b6000604051905090565b600080fd5b600080fd5b600080fd5b600080fd5b6000601f19601f8301169050919050565b7f4e487b7100000000000000000000000000000000000000000000000000000000600052604160045260246000fd5b6107748261072b565b810181811067ffffffffffffffff821117156107935761079261073c565b5b80604052505050565b60006107a661070d565b90506107b2828261076b565b919050565b600067ffffffffffffffff8211156107d2576107d161073c565b5b6107db8261072b565b9050602081019050919050565b82818337600083830152505050565b600061080a610805846107b7565b61079c565b90508281526020810184848401111561082657610825610726565b5b6108318482856107e8565b509392505050565b600082601f83011261084e5761084d610721565b5b813561085e8482602086016107f7565b91505092915050565b60006020828403121561087d5761087c610717565b5b600082013567ffffffffffffffff81111561089b5761089a61071c565b5b6108a784828501610839565b91505092915050565b6000819050919050565b6108c3816108b0565b81146108ce57600080fd5b50565b6000813590506108e0816108ba565b92915050565b600381106108f357600080fd5b50565b600081359050610905816108e6565b92915050565b6000806040838503121561092257610921610717565b5b6000610930858286016108d1565b9250506020610941858286016108f6565b9150509250929050565b610954816108b0565b82525050565b600060208201905061096f600083018461094b565b92915050565b60006020828403121561098b5761098a610717565b5b6000610999848285016108d1565b91505092915050565b60006109ad82610673565b9050919050565b6109bd816109a2565b82525050565b600081519050919050565b600082825260208201905092915050565b60005b838110156109fd5780820151818401526020810190506109e2565b60008484015250505050565b6000610a14826109c3565b610a1e81856109ce565b9350610a2e8185602086016109df565b610a378161072b565b840191505092915050565b7f4e487b7100000000000000000000000000000000000000000000000000000000600052602160045260246000fd5b60038110610a8257610a81610a42565b5b50565b6000819050610a9382610a71565b919050565b6000610aa382610a85565b9050919050565b610ab381610a98565b82525050565b6000606082019050610ace60008301866109b4565b8181036020830152610ae08185610a09565b9050610aef6040830184610aaa565b949350505050565b7f4e487b7100000000000000000000000000000000000000000000000000000000600052601160045260246000fd5b6000610b31826108b0565b91507fffffffffffffffffffffffffffffffffffffffffffffffffffffffffffffffff8203610b6357610b62610af7565b5b600182019050919050565b7f4e487b7100000000000000000000000000000000000000000000000000000000600052602260045260246000fd5b60006002820490506001821680610bb557607f821691505b602082108103610bc857610bc7610b6e565b5b50919050565b60008190508160005260206000209050919050565b60006020601f8301049050919050565b600082821b905092915050565b600060088302610c307fffffffffffffffffffffffffffffffffffffffffffffffffffffffffffffffff82610bf3565b610c3a8683610bf3565b95508019841693508086168417925050509392505050565b6000610c6d610c68610c63846108b0565b610693565b6108b0565b9050919050565b6000819050919050565b610c8783610c52565b610c9b610c9382610c74565b848454610c00565b825550505050565b600090565b610cb0610ca3565b610cbb818484610c7e565b505050565b5b81811015610cdf57610cd4600082610ca8565b600181019050610cc1565b5050565b601f821115610d2457610cf581610bce565b610cfe84610be3565b81016020851015610d0d578190505b610d21610d1985610be3565b830182610cc0565b50505b505050565b600082821c905092915050565b6000610d4760001984600802610d29565b1980831691505092915050565b6000610d608383610d36565b9150826002028217905092915050565b610d79826109c3565b67ffffffffffffffff811115610d9257610d9161073c565b5b610d9c8254610b9d565b610da7828285610ce3565b600060209050601f831160018114610dda5760008415610dc8578287015190505b610dd28582610d54565b865550610e3a565b601f198416610de886610bce565b60005b82811015610e1057848901518255600182019150602085019450602081019050610deb565b86831015610e2d5784890151610e29601f891682610d36565b8355505b6001600288020188555050505b505050505050565b6000606082019050610e57600083018661094b565b8181036020830152610e698185610a09565b9050610e786040830184610aaa565b949350505050565b7f496e76616c696420726571756573742049440000000000000000000000000000600082015250565b6000610eb66012836109ce565b9150610ec182610e80565b602082019050919050565b60006020820190508181036000830152610ee581610ea9565b9050919050565b7f596f7520617265206e6f742074686520726571756573746572206f662074686960008201527f732063726564656e7469616c0000000000000000000000000000000000000000602082015250565b6000610f48602c836109ce565b9150610f5382610eec565b604082019050919050565b60006020820190508181036000830152610f7781610f3b565b9050919050565b6000604082019050610f93600083018561094b565b610fa06020830184610aaa565b9392505050565b60008154610fb481610b9d565b610fbe81866109ce565b94506001821660008114610fd95760018114610fef57611022565b60ff198316865281151560200286019350611022565b610ff885610bce565b60005b8381101561101a57815481890152600182019150602081019050610ffb565b808801955050505b50505092915050565b6000819050919050565b61103e8161102b565b82525050565b600060608201905061105960008301866109b4565b818103602083015261106b8185610fa7565b905061107a6040830184611035565b949350505050565b60008160601b9050919050565b600061109a82611082565b9050919050565b60006110ac8261108f565b9050919050565b6110c46110bf826109a2565b6110a1565b82525050565b600081905092915050565b60006110e0826109c3565b6110ea81856110ca565b93506110fa8185602086016109df565b80840191505092915050565b600061111282856110b3565b60148201915061112282846110d5565b9150819050939250505056fea2646970667358221220b8d3a55d0660263cc332b56208c3c453aa9dc1ebda9024818c1af6315cc9d1d764736f6c63430008130033",
  "immutableReferences": {},
  "source": "// SPDX-License-Identifier: MIT\npragma solidity ^0.8.0;\n\n// Import the VerifiableCredentialIssuer contract for issuing credentials\nimport \"./Credentials.sol\";\n\ncontract VerifiableCredentialRequest {\n    enum RequestStatus { Pending, Successful, Declined }\n\n    struct CredentialRequest {\n        address requester;\n        string identity;\n        RequestStatus status;\n    }\n\n    VerifiableCredentialIssuer public issuerContract;\n    mapping(uint256 => CredentialRequest) public requests;\n    uint256 public requestCount;\n\n    event RequestCreated(uint256 requestId, address indexed requester, string identity, RequestStatus status);\n    event RequestStatusUpdated(uint256 requestId, RequestStatus status);\n\n    constructor(address _issuerContractAddress) {\n        issuerContract = VerifiableCredentialIssuer(_issuerContractAddress);\n    }\n\n    function createRequest(string memory _identity) external {\n        requestCount++;\n        requests[requestCount] = CredentialRequest({\n            requester: msg.sender,\n            identity: _identity,\n            status: RequestStatus.Pending\n        });\n        emit RequestCreated(requestCount, msg.sender, _identity, RequestStatus.Pending);\n    }\n\n    function updateRequestStatus(uint256 _requestId, RequestStatus _status) external {\n        require(_requestId <= requestCount, \"Invalid request ID\");\n        require(requests[_requestId].requester == msg.sender, \"You are not the requester of this credential\");\n\n        requests[_requestId].status = _status;\n        emit RequestStatusUpdated(_requestId, _status);\n\n        if (_status == RequestStatus.Successful) {\n            // Call the function in the VerifiableCredentialIssuer contract to issue a credential\n            issuerContract.issueCredential(msg.sender, requests[_requestId].identity, generateSignature(msg.sender, requests[_requestId].identity));\n        }\n    }\n\n    function generateSignature(address _holder, string memory _identity) private pure returns (bytes32) {\n        // Generate a dummy signature for demonstration purposes\n        return keccak256(abi.encodePacked(_holder, _identity));\n    }\n}\n",
  "sourcePath": "/home/timothy/Documents/projects/chainvote/voting_identity/contracts/CredentialRequest.sol",
  "compiler": {
    "name": "solc",
    "version": "0.8.19+commit.7dd6d404.Emscripten.clang"
  },
  "schemaVersion": "3.4.16",
  "updatedAt": "2024-02-02T01:21:10.968Z",
  "networkType": "ethereum",
  "devdoc": {
    "kind": "dev",
    "methods": {},
    "version": 1
  },
  "userdoc": {
    "kind": "user",
    "methods": {},
    "version": 1
  }
}